{
  "address": "0xeF8fe7aaB291372B3A384C16a4277D9f7c98c028",
  "abi": [
    {
      "anonymous": false,
      "inputs": [
        {
          "indexed": false,
          "internalType": "uint256",
          "name": "id",
          "type": "uint256"
        },
        {
          "indexed": false,
          "internalType": "string",
          "name": "companyName",
          "type": "string"
        },
        {
          "indexed": false,
          "internalType": "string",
          "name": "caseType",
          "type": "string"
        },
        {
          "indexed": false,
          "internalType": "string",
          "name": "description",
          "type": "string"
        },
        {
          "indexed": false,
          "internalType": "string",
          "name": "region",
          "type": "string"
        },
        {
          "indexed": false,
          "internalType": "string",
          "name": "profession",
          "type": "string"
        },
        {
          "indexed": false,
          "internalType": "string",
          "name": "gender",
          "type": "string"
        },
        {
          "indexed": false,
          "internalType": "string",
          "name": "ageRange",
          "type": "string"
        },
        {
          "indexed": false,
          "internalType": "string",
          "name": "experience",
          "type": "string"
        }
      ],
      "name": "CaseReported",
      "type": "event"
    },
    {
      "inputs": [
        {
          "internalType": "uint256",
          "name": "",
          "type": "uint256"
        }
      ],
      "name": "casesById",
      "outputs": [
        {
          "internalType": "uint256",
          "name": "id",
          "type": "uint256"
        },
        {
          "internalType": "string",
          "name": "companyName",
          "type": "string"
        },
        {
          "internalType": "string",
          "name": "caseType",
          "type": "string"
        },
        {
          "internalType": "string",
          "name": "description",
          "type": "string"
        },
        {
          "internalType": "string",
          "name": "region",
          "type": "string"
        },
        {
          "internalType": "string",
          "name": "profession",
          "type": "string"
        },
        {
          "internalType": "string",
          "name": "gender",
          "type": "string"
        },
        {
          "internalType": "string",
          "name": "ageRange",
          "type": "string"
        },
        {
          "internalType": "string",
          "name": "experience",
          "type": "string"
        }
      ],
      "stateMutability": "view",
      "type": "function"
    },
    {
      "inputs": [],
      "name": "owner",
      "outputs": [
        {
          "internalType": "address",
          "name": "",
          "type": "address"
        }
      ],
      "stateMutability": "view",
      "type": "function"
    },
    {
      "inputs": [
        {
          "internalType": "string",
          "name": "_companyName",
          "type": "string"
        },
        {
          "internalType": "string",
          "name": "_caseType",
          "type": "string"
        },
        {
          "internalType": "string",
          "name": "_description",
          "type": "string"
        },
        {
          "internalType": "string",
          "name": "_region",
          "type": "string"
        },
        {
          "internalType": "string",
          "name": "_profession",
          "type": "string"
        },
        {
          "internalType": "string",
          "name": "_gender",
          "type": "string"
        },
        {
          "internalType": "string",
          "name": "_ageRange",
          "type": "string"
        },
        {
          "internalType": "string",
          "name": "_experience",
          "type": "string"
        }
      ],
      "name": "report",
      "outputs": [],
      "stateMutability": "nonpayable",
      "type": "function"
    }
  ],
  "transactionHash": "0x33cb07de800b2ec93605a4ba160e62f5c60b36d2de1bb82aa47aeb9d303e6823",
  "args": [],
  "solcInputHash": "98f7235be3693a8607cb0e37ce52d630",
  "bytecode": "0x6080604052336000806101000a81548173ffffffffffffffffffffffffffffffffffffffff021916908373ffffffffffffffffffffffffffffffffffffffff160217905550600060015534801561005557600080fd5b50610fc3806100656000396000f3fe608060405234801561001057600080fd5b50600436106100415760003560e01c80631cdc91d1146100465780638da5cb5b1461007e578063b40f4e361461009c575b600080fd5b610060600480360381019061005b9190610a82565b6100b8565b60405161007599989796959493929190610b9d565b60405180910390f35b610086610546565b6040516100939190610b82565b60405180910390f35b6100b660048036038101906100b19190610910565b61056a565b005b60026020528060005260406000206000915090508060000154908060010180546100e190610e2c565b80601f016020809104026020016040519081016040528092919081815260200182805461010d90610e2c565b801561015a5780601f1061012f5761010080835404028352916020019161015a565b820191906000526020600020905b81548152906001019060200180831161013d57829003601f168201915b50505050509080600201805461016f90610e2c565b80601f016020809104026020016040519081016040528092919081815260200182805461019b90610e2c565b80156101e85780601f106101bd576101008083540402835291602001916101e8565b820191906000526020600020905b8154815290600101906020018083116101cb57829003601f168201915b5050505050908060030180546101fd90610e2c565b80601f016020809104026020016040519081016040528092919081815260200182805461022990610e2c565b80156102765780601f1061024b57610100808354040283529160200191610276565b820191906000526020600020905b81548152906001019060200180831161025957829003601f168201915b50505050509080600401805461028b90610e2c565b80601f01602080910402602001604051908101604052809291908181526020018280546102b790610e2c565b80156103045780601f106102d957610100808354040283529160200191610304565b820191906000526020600020905b8154815290600101906020018083116102e757829003601f168201915b50505050509080600501805461031990610e2c565b80601f016020809104026020016040519081016040528092919081815260200182805461034590610e2c565b80156103925780601f1061036757610100808354040283529160200191610392565b820191906000526020600020905b81548152906001019060200180831161037557829003601f168201915b5050505050908060060180546103a790610e2c565b80601f01602080910402602001604051908101604052809291908181526020018280546103d390610e2c565b80156104205780601f106103f557610100808354040283529160200191610420565b820191906000526020600020905b81548152906001019060200180831161040357829003601f168201915b50505050509080600701805461043590610e2c565b80601f016020809104026020016040519081016040528092919081815260200182805461046190610e2c565b80156104ae5780601f10610483576101008083540402835291602001916104ae565b820191906000526020600020905b81548152906001019060200180831161049157829003601f168201915b5050505050908060080180546104c390610e2c565b80601f01602080910402602001604051908101604052809291908181526020018280546104ef90610e2c565b801561053c5780601f106105115761010080835404028352916020019161053c565b820191906000526020600020905b81548152906001019060200180831161051f57829003601f168201915b5050505050905089565b60008054906101000a900473ffffffffffffffffffffffffffffffffffffffff1681565b6040518061012001604052806001548152602001898152602001888152602001878152602001868152602001858152602001848152602001838152602001828152506002600060015481526020019081526020016000206000820151816000015560208201518160010190805190602001906105e79291906107f0565b5060408201518160020190805190602001906106049291906107f0565b5060608201518160030190805190602001906106219291906107f0565b50608082015181600401908051906020019061063e9291906107f0565b5060a082015181600501908051906020019061065b9291906107f0565b5060c08201518160060190805190602001906106789291906107f0565b5060e08201518160070190805190602001906106959291906107f0565b506101008201518160080190805190602001906106b39291906107f0565b509050507fcad868f0df7e4aa62a1c91fa0cb3db2a89e3de4f9a01ad0972a4828f5e7c6789600260006001548152602001908152602001600020600001546002600060015481526020019081526020016000206001016002600060015481526020019081526020016000206002016002600060015481526020019081526020016000206003016002600060015481526020019081526020016000206004016002600060015481526020019081526020016000206005016002600060015481526020019081526020016000206006016002600060015481526020019081526020016000206007016002600060015481526020019081526020016000206008016040516107c699989796959493929190610c62565b60405180910390a1600160008154809291906107e190610e8f565b91905055505050505050505050565b8280546107fc90610e2c565b90600052602060002090601f01602090048101928261081e5760008555610865565b82601f1061083757805160ff1916838001178555610865565b82800160010185558215610865579182015b82811115610864578251825591602001919060010190610849565b5b5090506108729190610876565b5090565b5b8082111561088f576000816000905550600101610877565b5090565b60006108a66108a184610d4c565b610d27565b9050828152602081018484840111156108be57600080fd5b6108c9848285610dea565b509392505050565b600082601f8301126108e257600080fd5b81356108f2848260208601610893565b91505092915050565b60008135905061090a81610f76565b92915050565b600080600080600080600080610100898b03121561092d57600080fd5b600089013567ffffffffffffffff81111561094757600080fd5b6109538b828c016108d1565b985050602089013567ffffffffffffffff81111561097057600080fd5b61097c8b828c016108d1565b975050604089013567ffffffffffffffff81111561099957600080fd5b6109a58b828c016108d1565b965050606089013567ffffffffffffffff8111156109c257600080fd5b6109ce8b828c016108d1565b955050608089013567ffffffffffffffff8111156109eb57600080fd5b6109f78b828c016108d1565b94505060a089013567ffffffffffffffff811115610a1457600080fd5b610a208b828c016108d1565b93505060c089013567ffffffffffffffff811115610a3d57600080fd5b610a498b828c016108d1565b92505060e089013567ffffffffffffffff811115610a6657600080fd5b610a728b828c016108d1565b9150509295985092959890939650565b600060208284031215610a9457600080fd5b6000610aa2848285016108fb565b91505092915050565b610ab481610dae565b82525050565b6000610ac582610d92565b610acf8185610d9d565b9350610adf818560208601610df9565b610ae881610f65565b840191505092915050565b60008154610b0081610e2c565b610b0a8186610d9d565b94506001821660008114610b255760018114610b3757610b6a565b60ff1983168652602086019350610b6a565b610b4085610d7d565b60005b83811015610b6257815481890152600182019150602081019050610b43565b808801955050505b50505092915050565b610b7c81610de0565b82525050565b6000602082019050610b976000830184610aab565b92915050565b600061012082019050610bb3600083018c610b73565b8181036020830152610bc5818b610aba565b90508181036040830152610bd9818a610aba565b90508181036060830152610bed8189610aba565b90508181036080830152610c018188610aba565b905081810360a0830152610c158187610aba565b905081810360c0830152610c298186610aba565b905081810360e0830152610c3d8185610aba565b9050818103610100830152610c528184610aba565b90509a9950505050505050505050565b600061012082019050610c78600083018c610b73565b8181036020830152610c8a818b610af3565b90508181036040830152610c9e818a610af3565b90508181036060830152610cb28189610af3565b90508181036080830152610cc68188610af3565b905081810360a0830152610cda8187610af3565b905081810360c0830152610cee8186610af3565b905081810360e0830152610d028185610af3565b9050818103610100830152610d178184610af3565b90509a9950505050505050505050565b6000610d31610d42565b9050610d3d8282610e5e565b919050565b6000604051905090565b600067ffffffffffffffff821115610d6757610d66610f36565b5b610d7082610f65565b9050602081019050919050565b60008190508160005260206000209050919050565b600081519050919050565b600082825260208201905092915050565b6000610db982610dc0565b9050919050565b600073ffffffffffffffffffffffffffffffffffffffff82169050919050565b6000819050919050565b82818337600083830152505050565b60005b83811015610e17578082015181840152602081019050610dfc565b83811115610e26576000848401525b50505050565b60006002820490506001821680610e4457607f821691505b60208210811415610e5857610e57610f07565b5b50919050565b610e6782610f65565b810181811067ffffffffffffffff82111715610e8657610e85610f36565b5b80604052505050565b6000610e9a82610de0565b91507fffffffffffffffffffffffffffffffffffffffffffffffffffffffffffffffff821415610ecd57610ecc610ed8565b5b600182019050919050565b7f4e487b7100000000000000000000000000000000000000000000000000000000600052601160045260246000fd5b7f4e487b7100000000000000000000000000000000000000000000000000000000600052602260045260246000fd5b7f4e487b7100000000000000000000000000000000000000000000000000000000600052604160045260246000fd5b6000601f19601f8301169050919050565b610f7f81610de0565b8114610f8a57600080fd5b5056fea264697066735822122037210451267a7f998f6d3930ba9d4220921b4fe3d0c2cf01bb848fa25ed9da0d64736f6c63430008040033",
  "devdoc": {
    "kind": "dev",
    "methods": {},
    "version": 1
  },
  "userdoc": {
    "kind": "user",
    "methods": {},
    "version": 1
  },
  "storageLayout": {
    "storage": [
      {
        "astId": 5,
        "contract": "contracts/CaseRegistry.sol:CaseRegistry",
        "label": "owner",
        "offset": 0,
        "slot": "0",
        "type": "t_address"
      },
      {
        "astId": 8,
        "contract": "contracts/CaseRegistry.sol:CaseRegistry",
        "label": "currentId",
        "offset": 0,
        "slot": "1",
        "type": "t_uint256"
      },
      {
        "astId": 32,
        "contract": "contracts/CaseRegistry.sol:CaseRegistry",
        "label": "casesById",
        "offset": 0,
        "slot": "2",
        "type": "t_mapping(t_uint256,t_struct(Case)27_storage)"
      }
    ],
    "types": {
      "t_address": {
        "encoding": "inplace",
        "label": "address",
        "numberOfBytes": "20"
      },
      "t_mapping(t_uint256,t_struct(Case)27_storage)": {
        "encoding": "mapping",
        "key": "t_uint256",
        "label": "mapping(uint256 => struct CaseRegistry.Case)",
        "numberOfBytes": "32",
        "value": "t_struct(Case)27_storage"
      },
      "t_string_storage": {
        "encoding": "bytes",
        "label": "string",
        "numberOfBytes": "32"
      },
      "t_struct(Case)27_storage": {
        "encoding": "inplace",
        "label": "struct CaseRegistry.Case",
        "members": [
          {
            "astId": 10,
            "contract": "contracts/CaseRegistry.sol:CaseRegistry",
            "label": "id",
            "offset": 0,
            "slot": "0",
            "type": "t_uint256"
          },
          {
            "astId": 12,
            "contract": "contracts/CaseRegistry.sol:CaseRegistry",
            "label": "companyName",
            "offset": 0,
            "slot": "1",
            "type": "t_string_storage"
          },
          {
            "astId": 14,
            "contract": "contracts/CaseRegistry.sol:CaseRegistry",
            "label": "caseType",
            "offset": 0,
            "slot": "2",
            "type": "t_string_storage"
          },
          {
            "astId": 16,
            "contract": "contracts/CaseRegistry.sol:CaseRegistry",
            "label": "description",
            "offset": 0,
            "slot": "3",
            "type": "t_string_storage"
          },
          {
            "astId": 18,
            "contract": "contracts/CaseRegistry.sol:CaseRegistry",
            "label": "region",
            "offset": 0,
            "slot": "4",
            "type": "t_string_storage"
          },
          {
            "astId": 20,
            "contract": "contracts/CaseRegistry.sol:CaseRegistry",
            "label": "profession",
            "offset": 0,
            "slot": "5",
            "type": "t_string_storage"
          },
          {
            "astId": 22,
            "contract": "contracts/CaseRegistry.sol:CaseRegistry",
            "label": "gender",
            "offset": 0,
            "slot": "6",
            "type": "t_string_storage"
          },
          {
            "astId": 24,
            "contract": "contracts/CaseRegistry.sol:CaseRegistry",
            "label": "ageRange",
            "offset": 0,
            "slot": "7",
            "type": "t_string_storage"
          },
          {
            "astId": 26,
            "contract": "contracts/CaseRegistry.sol:CaseRegistry",
            "label": "experience",
            "offset": 0,
            "slot": "8",
            "type": "t_string_storage"
          }
        ],
        "numberOfBytes": "288"
      },
      "t_uint256": {
        "encoding": "inplace",
        "label": "uint256",
        "numberOfBytes": "32"
      }
    }
  }
}