{
  "address": "0x05962cf9f449575B3cDAcaF03AC93A5c99B9B7Be",
  "abi": [
    {
      "anonymous": false,
      "inputs": [
        {
          "indexed": false,
          "internalType": "uint256",
          "name": "id",
          "type": "uint256"
        }
      ],
      "name": "CaseReported",
      "type": "event"
    },
    {
      "inputs": [
        {
          "internalType": "uint256",
          "name": "",
          "type": "uint256"
        }
      ],
      "name": "casesById",
      "outputs": [
        {
          "internalType": "uint256",
          "name": "id",
          "type": "uint256"
        },
        {
          "internalType": "string",
          "name": "companyName",
          "type": "string"
        },
        {
          "internalType": "string",
          "name": "caseType",
          "type": "string"
        },
        {
          "internalType": "string",
          "name": "description",
          "type": "string"
        },
        {
          "internalType": "string",
          "name": "region",
          "type": "string"
        },
        {
          "internalType": "string",
          "name": "profession",
          "type": "string"
        },
        {
          "internalType": "string",
          "name": "gender",
          "type": "string"
        },
        {
          "internalType": "string",
          "name": "ageRange",
          "type": "string"
        },
        {
          "internalType": "string",
          "name": "experience",
          "type": "string"
        }
      ],
      "stateMutability": "view",
      "type": "function"
    },
    {
      "inputs": [],
      "name": "owner",
      "outputs": [
        {
          "internalType": "address",
          "name": "",
          "type": "address"
        }
      ],
      "stateMutability": "view",
      "type": "function"
    },
    {
      "inputs": [
        {
          "internalType": "string",
          "name": "_companyName",
          "type": "string"
        },
        {
          "internalType": "string",
          "name": "_caseType",
          "type": "string"
        },
        {
          "internalType": "string",
          "name": "_description",
          "type": "string"
        },
        {
          "internalType": "string",
          "name": "_region",
          "type": "string"
        },
        {
          "internalType": "string",
          "name": "_profession",
          "type": "string"
        },
        {
          "internalType": "string",
          "name": "_gender",
          "type": "string"
        },
        {
          "internalType": "string",
          "name": "_ageRange",
          "type": "string"
        },
        {
          "internalType": "string",
          "name": "_experience",
          "type": "string"
        }
      ],
      "name": "report",
      "outputs": [],
      "stateMutability": "nonpayable",
      "type": "function"
    }
  ],
  "transactionHash": "0x041a1b53efbd34d834ef3d8f39437d6b162a856a3cbc4d25373dc192743ab07e",
  "args": [],
  "solcInputHash": "4dd06d0ab867a4496f829de9e7d68f1d",
  "bytecode": "0x6080604052336000806101000a81548173ffffffffffffffffffffffffffffffffffffffff021916908373ffffffffffffffffffffffffffffffffffffffff160217905550600060015534801561005557600080fd5b50610dbc806100656000396000f3fe608060405234801561001057600080fd5b50600436106100415760003560e01c80631cdc91d1146100465780638da5cb5b1461007e578063b40f4e361461009c575b600080fd5b610060600480360381019061005b91906109ba565b6100b8565b60405161007599989796959493929190610a70565b60405180910390f35b610086610546565b6040516100939190610a3a565b60405180910390f35b6100b660048036038101906100b19190610848565b61056a565b005b60026020528060005260406000206000915090508060000154908060010180546100e190610c25565b80601f016020809104026020016040519081016040528092919081815260200182805461010d90610c25565b801561015a5780601f1061012f5761010080835404028352916020019161015a565b820191906000526020600020905b81548152906001019060200180831161013d57829003601f168201915b50505050509080600201805461016f90610c25565b80601f016020809104026020016040519081016040528092919081815260200182805461019b90610c25565b80156101e85780601f106101bd576101008083540402835291602001916101e8565b820191906000526020600020905b8154815290600101906020018083116101cb57829003601f168201915b5050505050908060030180546101fd90610c25565b80601f016020809104026020016040519081016040528092919081815260200182805461022990610c25565b80156102765780601f1061024b57610100808354040283529160200191610276565b820191906000526020600020905b81548152906001019060200180831161025957829003601f168201915b50505050509080600401805461028b90610c25565b80601f01602080910402602001604051908101604052809291908181526020018280546102b790610c25565b80156103045780601f106102d957610100808354040283529160200191610304565b820191906000526020600020905b8154815290600101906020018083116102e757829003601f168201915b50505050509080600501805461031990610c25565b80601f016020809104026020016040519081016040528092919081815260200182805461034590610c25565b80156103925780601f1061036757610100808354040283529160200191610392565b820191906000526020600020905b81548152906001019060200180831161037557829003601f168201915b5050505050908060060180546103a790610c25565b80601f01602080910402602001604051908101604052809291908181526020018280546103d390610c25565b80156104205780601f106103f557610100808354040283529160200191610420565b820191906000526020600020905b81548152906001019060200180831161040357829003601f168201915b50505050509080600701805461043590610c25565b80601f016020809104026020016040519081016040528092919081815260200182805461046190610c25565b80156104ae5780601f10610483576101008083540402835291602001916104ae565b820191906000526020600020905b81548152906001019060200180831161049157829003601f168201915b5050505050908060080180546104c390610c25565b80601f01602080910402602001604051908101604052809291908181526020018280546104ef90610c25565b801561053c5780601f106105115761010080835404028352916020019161053c565b820191906000526020600020905b81548152906001019060200180831161051f57829003601f168201915b5050505050905089565b60008054906101000a900473ffffffffffffffffffffffffffffffffffffffff1681565b6040518061012001604052806001548152602001898152602001888152602001878152602001868152602001858152602001848152602001838152602001828152506002600060015481526020019081526020016000206000820151816000015560208201518160010190805190602001906105e7929190610728565b506040820151816002019080519060200190610604929190610728565b506060820151816003019080519060200190610621929190610728565b50608082015181600401908051906020019061063e929190610728565b5060a082015181600501908051906020019061065b929190610728565b5060c0820151816006019080519060200190610678929190610728565b5060e0820151816007019080519060200190610695929190610728565b506101008201518160080190805190602001906106b3929190610728565b509050507f528f99e670d38fb6a638c9f5397f5399ce83c99031de6c54afa7573afc82e73d600260006001548152602001908152602001600020600001546040516106fe9190610a55565b60405180910390a16001600081548092919061071990610c88565b91905055505050505050505050565b82805461073490610c25565b90600052602060002090601f016020900481019282610756576000855561079d565b82601f1061076f57805160ff191683800117855561079d565b8280016001018555821561079d579182015b8281111561079c578251825591602001919060010190610781565b5b5090506107aa91906107ae565b5090565b5b808211156107c75760008160009055506001016107af565b5090565b60006107de6107d984610b5a565b610b35565b9050828152602081018484840111156107f657600080fd5b610801848285610be3565b509392505050565b600082601f83011261081a57600080fd5b813561082a8482602086016107cb565b91505092915050565b60008135905061084281610d6f565b92915050565b600080600080600080600080610100898b03121561086557600080fd5b600089013567ffffffffffffffff81111561087f57600080fd5b61088b8b828c01610809565b985050602089013567ffffffffffffffff8111156108a857600080fd5b6108b48b828c01610809565b975050604089013567ffffffffffffffff8111156108d157600080fd5b6108dd8b828c01610809565b965050606089013567ffffffffffffffff8111156108fa57600080fd5b6109068b828c01610809565b955050608089013567ffffffffffffffff81111561092357600080fd5b61092f8b828c01610809565b94505060a089013567ffffffffffffffff81111561094c57600080fd5b6109588b828c01610809565b93505060c089013567ffffffffffffffff81111561097557600080fd5b6109818b828c01610809565b92505060e089013567ffffffffffffffff81111561099e57600080fd5b6109aa8b828c01610809565b9150509295985092959890939650565b6000602082840312156109cc57600080fd5b60006109da84828501610833565b91505092915050565b6109ec81610ba7565b82525050565b60006109fd82610b8b565b610a078185610b96565b9350610a17818560208601610bf2565b610a2081610d5e565b840191505092915050565b610a3481610bd9565b82525050565b6000602082019050610a4f60008301846109e3565b92915050565b6000602082019050610a6a6000830184610a2b565b92915050565b600061012082019050610a86600083018c610a2b565b8181036020830152610a98818b6109f2565b90508181036040830152610aac818a6109f2565b90508181036060830152610ac081896109f2565b90508181036080830152610ad481886109f2565b905081810360a0830152610ae881876109f2565b905081810360c0830152610afc81866109f2565b905081810360e0830152610b1081856109f2565b9050818103610100830152610b2581846109f2565b90509a9950505050505050505050565b6000610b3f610b50565b9050610b4b8282610c57565b919050565b6000604051905090565b600067ffffffffffffffff821115610b7557610b74610d2f565b5b610b7e82610d5e565b9050602081019050919050565b600081519050919050565b600082825260208201905092915050565b6000610bb282610bb9565b9050919050565b600073ffffffffffffffffffffffffffffffffffffffff82169050919050565b6000819050919050565b82818337600083830152505050565b60005b83811015610c10578082015181840152602081019050610bf5565b83811115610c1f576000848401525b50505050565b60006002820490506001821680610c3d57607f821691505b60208210811415610c5157610c50610d00565b5b50919050565b610c6082610d5e565b810181811067ffffffffffffffff82111715610c7f57610c7e610d2f565b5b80604052505050565b6000610c9382610bd9565b91507fffffffffffffffffffffffffffffffffffffffffffffffffffffffffffffffff821415610cc657610cc5610cd1565b5b600182019050919050565b7f4e487b7100000000000000000000000000000000000000000000000000000000600052601160045260246000fd5b7f4e487b7100000000000000000000000000000000000000000000000000000000600052602260045260246000fd5b7f4e487b7100000000000000000000000000000000000000000000000000000000600052604160045260246000fd5b6000601f19601f8301169050919050565b610d7881610bd9565b8114610d8357600080fd5b5056fea2646970667358221220c3c9172832e7e409acb30bd11ca438b3441bd0af7bf5ae1242e6f332f295e06464736f6c63430008040033",
  "devdoc": {
    "kind": "dev",
    "methods": {},
    "version": 1
  },
  "userdoc": {
    "kind": "user",
    "methods": {},
    "version": 1
  },
  "storageLayout": {
    "storage": [
      {
        "astId": 6,
        "contract": "contracts/CaseRegistry.sol:CaseRegistry",
        "label": "owner",
        "offset": 0,
        "slot": "0",
        "type": "t_address"
      },
      {
        "astId": 9,
        "contract": "contracts/CaseRegistry.sol:CaseRegistry",
        "label": "currentId",
        "offset": 0,
        "slot": "1",
        "type": "t_uint256"
      },
      {
        "astId": 33,
        "contract": "contracts/CaseRegistry.sol:CaseRegistry",
        "label": "casesById",
        "offset": 0,
        "slot": "2",
        "type": "t_mapping(t_uint256,t_struct(Case)28_storage)"
      }
    ],
    "types": {
      "t_address": {
        "encoding": "inplace",
        "label": "address",
        "numberOfBytes": "20"
      },
      "t_mapping(t_uint256,t_struct(Case)28_storage)": {
        "encoding": "mapping",
        "key": "t_uint256",
        "label": "mapping(uint256 => struct CaseRegistry.Case)",
        "numberOfBytes": "32",
        "value": "t_struct(Case)28_storage"
      },
      "t_string_storage": {
        "encoding": "bytes",
        "label": "string",
        "numberOfBytes": "32"
      },
      "t_struct(Case)28_storage": {
        "encoding": "inplace",
        "label": "struct CaseRegistry.Case",
        "members": [
          {
            "astId": 11,
            "contract": "contracts/CaseRegistry.sol:CaseRegistry",
            "label": "id",
            "offset": 0,
            "slot": "0",
            "type": "t_uint256"
          },
          {
            "astId": 13,
            "contract": "contracts/CaseRegistry.sol:CaseRegistry",
            "label": "companyName",
            "offset": 0,
            "slot": "1",
            "type": "t_string_storage"
          },
          {
            "astId": 15,
            "contract": "contracts/CaseRegistry.sol:CaseRegistry",
            "label": "caseType",
            "offset": 0,
            "slot": "2",
            "type": "t_string_storage"
          },
          {
            "astId": 17,
            "contract": "contracts/CaseRegistry.sol:CaseRegistry",
            "label": "description",
            "offset": 0,
            "slot": "3",
            "type": "t_string_storage"
          },
          {
            "astId": 19,
            "contract": "contracts/CaseRegistry.sol:CaseRegistry",
            "label": "region",
            "offset": 0,
            "slot": "4",
            "type": "t_string_storage"
          },
          {
            "astId": 21,
            "contract": "contracts/CaseRegistry.sol:CaseRegistry",
            "label": "profession",
            "offset": 0,
            "slot": "5",
            "type": "t_string_storage"
          },
          {
            "astId": 23,
            "contract": "contracts/CaseRegistry.sol:CaseRegistry",
            "label": "gender",
            "offset": 0,
            "slot": "6",
            "type": "t_string_storage"
          },
          {
            "astId": 25,
            "contract": "contracts/CaseRegistry.sol:CaseRegistry",
            "label": "ageRange",
            "offset": 0,
            "slot": "7",
            "type": "t_string_storage"
          },
          {
            "astId": 27,
            "contract": "contracts/CaseRegistry.sol:CaseRegistry",
            "label": "experience",
            "offset": 0,
            "slot": "8",
            "type": "t_string_storage"
          }
        ],
        "numberOfBytes": "288"
      },
      "t_uint256": {
        "encoding": "inplace",
        "label": "uint256",
        "numberOfBytes": "32"
      }
    }
  }
}