{
  "address": "0x7a387dBDeE97E22B8c7B25E8fc0243F77CA03dC0",
  "abi": [
    {
      "anonymous": false,
      "inputs": [
        {
          "indexed": false,
          "internalType": "uint256",
          "name": "currentId",
          "type": "uint256"
        }
      ],
      "name": "CaseRegistryRestarted",
      "type": "event"
    },
    {
      "anonymous": false,
      "inputs": [
        {
          "indexed": false,
          "internalType": "uint256",
          "name": "id",
          "type": "uint256"
        },
        {
          "indexed": false,
          "internalType": "string",
          "name": "companyName",
          "type": "string"
        },
        {
          "indexed": false,
          "internalType": "string",
          "name": "caseType",
          "type": "string"
        },
        {
          "indexed": false,
          "internalType": "string",
          "name": "description",
          "type": "string"
        },
        {
          "indexed": false,
          "internalType": "string",
          "name": "region",
          "type": "string"
        },
        {
          "indexed": false,
          "internalType": "string",
          "name": "profession",
          "type": "string"
        },
        {
          "indexed": false,
          "internalType": "string",
          "name": "gender",
          "type": "string"
        },
        {
          "indexed": false,
          "internalType": "string",
          "name": "ageRange",
          "type": "string"
        },
        {
          "indexed": false,
          "internalType": "string",
          "name": "experience",
          "type": "string"
        }
      ],
      "name": "CaseReported",
      "type": "event"
    },
    {
      "inputs": [
        {
          "internalType": "uint256",
          "name": "",
          "type": "uint256"
        }
      ],
      "name": "casesById",
      "outputs": [
        {
          "internalType": "uint256",
          "name": "id",
          "type": "uint256"
        },
        {
          "internalType": "string",
          "name": "companyName",
          "type": "string"
        },
        {
          "internalType": "string",
          "name": "caseType",
          "type": "string"
        },
        {
          "internalType": "string",
          "name": "description",
          "type": "string"
        },
        {
          "internalType": "string",
          "name": "region",
          "type": "string"
        },
        {
          "internalType": "string",
          "name": "profession",
          "type": "string"
        },
        {
          "internalType": "string",
          "name": "gender",
          "type": "string"
        },
        {
          "internalType": "string",
          "name": "ageRange",
          "type": "string"
        },
        {
          "internalType": "string",
          "name": "experience",
          "type": "string"
        }
      ],
      "stateMutability": "view",
      "type": "function"
    },
    {
      "inputs": [],
      "name": "owner",
      "outputs": [
        {
          "internalType": "address",
          "name": "",
          "type": "address"
        }
      ],
      "stateMutability": "view",
      "type": "function"
    },
    {
      "inputs": [
        {
          "internalType": "string",
          "name": "_companyName",
          "type": "string"
        },
        {
          "internalType": "string",
          "name": "_caseType",
          "type": "string"
        },
        {
          "internalType": "string",
          "name": "_description",
          "type": "string"
        },
        {
          "internalType": "string",
          "name": "_region",
          "type": "string"
        },
        {
          "internalType": "string",
          "name": "_profession",
          "type": "string"
        },
        {
          "internalType": "string",
          "name": "_gender",
          "type": "string"
        },
        {
          "internalType": "string",
          "name": "_ageRange",
          "type": "string"
        },
        {
          "internalType": "string",
          "name": "_experience",
          "type": "string"
        }
      ],
      "name": "report",
      "outputs": [],
      "stateMutability": "nonpayable",
      "type": "function"
    },
    {
      "inputs": [],
      "name": "restart",
      "outputs": [],
      "stateMutability": "nonpayable",
      "type": "function"
    }
  ],
  "transactionHash": "0xc833a56526033963a2326d321118093b4a61c7eb6972e0110a9ee52f200e4d9f",
  "args": [],
  "solcInputHash": "c2b5e43e5cfe4adeeba410d891434303",
  "bytecode": "0x6080604052336000806101000a81548173ffffffffffffffffffffffffffffffffffffffff021916908373ffffffffffffffffffffffffffffffffffffffff160217905550600060015534801561005557600080fd5b50611135806100656000396000f3fe608060405234801561001057600080fd5b506004361061004c5760003560e01c80631cdc91d1146100515780631ef3755d146100895780638da5cb5b14610093578063b40f4e36146100b1575b600080fd5b61006b60048036038101906100669190610bd9565b6100cd565b60405161008099989796959493929190610d0f565b60405180910390f35b61009161055b565b005b61009b61065d565b6040516100a89190610cd9565b60405180910390f35b6100cb60048036038101906100c69190610a67565b610681565b005b60026020528060005260406000206000915090508060000154908060010180546100f690610f9e565b80601f016020809104026020016040519081016040528092919081815260200182805461012290610f9e565b801561016f5780601f106101445761010080835404028352916020019161016f565b820191906000526020600020905b81548152906001019060200180831161015257829003601f168201915b50505050509080600201805461018490610f9e565b80601f01602080910402602001604051908101604052809291908181526020018280546101b090610f9e565b80156101fd5780601f106101d2576101008083540402835291602001916101fd565b820191906000526020600020905b8154815290600101906020018083116101e057829003601f168201915b50505050509080600301805461021290610f9e565b80601f016020809104026020016040519081016040528092919081815260200182805461023e90610f9e565b801561028b5780601f106102605761010080835404028352916020019161028b565b820191906000526020600020905b81548152906001019060200180831161026e57829003601f168201915b5050505050908060040180546102a090610f9e565b80601f01602080910402602001604051908101604052809291908181526020018280546102cc90610f9e565b80156103195780601f106102ee57610100808354040283529160200191610319565b820191906000526020600020905b8154815290600101906020018083116102fc57829003601f168201915b50505050509080600501805461032e90610f9e565b80601f016020809104026020016040519081016040528092919081815260200182805461035a90610f9e565b80156103a75780601f1061037c576101008083540402835291602001916103a7565b820191906000526020600020905b81548152906001019060200180831161038a57829003601f168201915b5050505050908060060180546103bc90610f9e565b80601f01602080910402602001604051908101604052809291908181526020018280546103e890610f9e565b80156104355780601f1061040a57610100808354040283529160200191610435565b820191906000526020600020905b81548152906001019060200180831161041857829003601f168201915b50505050509080600701805461044a90610f9e565b80601f016020809104026020016040519081016040528092919081815260200182805461047690610f9e565b80156104c35780601f10610498576101008083540402835291602001916104c3565b820191906000526020600020905b8154815290600101906020018083116104a657829003601f168201915b5050505050908060080180546104d890610f9e565b80601f016020809104026020016040519081016040528092919081815260200182805461050490610f9e565b80156105515780601f1061052657610100808354040283529160200191610551565b820191906000526020600020905b81548152906001019060200180831161053457829003601f168201915b5050505050905089565b60005b60015481101561061957600260008281526020019081526020016000206000808201600090556001820160006105949190610907565b6002820160006105a49190610907565b6003820160006105b49190610907565b6004820160006105c49190610907565b6005820160006105d49190610907565b6006820160006105e49190610907565b6007820160006105f49190610907565b6008820160006106049190610907565b5050808061061190611001565b91505061055e565b507fd6b61485362f7ef3ce47ae87bb51ed285281e952b1bcd7512ee4954bc642cf7560015460405161064b9190610cf4565b60405180910390a16000600181905550565b60008054906101000a900473ffffffffffffffffffffffffffffffffffffffff1681565b6040518061012001604052806001548152602001898152602001888152602001878152602001868152602001858152602001848152602001838152602001828152506002600060015481526020019081526020016000206000820151816000015560208201518160010190805190602001906106fe929190610947565b50604082015181600201908051906020019061071b929190610947565b506060820151816003019080519060200190610738929190610947565b506080820151816004019080519060200190610755929190610947565b5060a0820151816005019080519060200190610772929190610947565b5060c082015181600601908051906020019061078f929190610947565b5060e08201518160070190805190602001906107ac929190610947565b506101008201518160080190805190602001906107ca929190610947565b509050507fcad868f0df7e4aa62a1c91fa0cb3db2a89e3de4f9a01ad0972a4828f5e7c6789600260006001548152602001908152602001600020600001546002600060015481526020019081526020016000206001016002600060015481526020019081526020016000206002016002600060015481526020019081526020016000206003016002600060015481526020019081526020016000206004016002600060015481526020019081526020016000206005016002600060015481526020019081526020016000206006016002600060015481526020019081526020016000206007016002600060015481526020019081526020016000206008016040516108dd99989796959493929190610dd4565b60405180910390a1600160008154809291906108f890611001565b91905055505050505050505050565b50805461091390610f9e565b6000825580601f106109255750610944565b601f01602090049060005260206000209081019061094391906109cd565b5b50565b82805461095390610f9e565b90600052602060002090601f01602090048101928261097557600085556109bc565b82601f1061098e57805160ff19168380011785556109bc565b828001600101855582156109bc579182015b828111156109bb5782518255916020019190600101906109a0565b5b5090506109c991906109cd565b5090565b5b808211156109e65760008160009055506001016109ce565b5090565b60006109fd6109f884610ebe565b610e99565b905082815260208101848484011115610a1557600080fd5b610a20848285610f5c565b509392505050565b600082601f830112610a3957600080fd5b8135610a498482602086016109ea565b91505092915050565b600081359050610a61816110e8565b92915050565b600080600080600080600080610100898b031215610a8457600080fd5b600089013567ffffffffffffffff811115610a9e57600080fd5b610aaa8b828c01610a28565b985050602089013567ffffffffffffffff811115610ac757600080fd5b610ad38b828c01610a28565b975050604089013567ffffffffffffffff811115610af057600080fd5b610afc8b828c01610a28565b965050606089013567ffffffffffffffff811115610b1957600080fd5b610b258b828c01610a28565b955050608089013567ffffffffffffffff811115610b4257600080fd5b610b4e8b828c01610a28565b94505060a089013567ffffffffffffffff811115610b6b57600080fd5b610b778b828c01610a28565b93505060c089013567ffffffffffffffff811115610b9457600080fd5b610ba08b828c01610a28565b92505060e089013567ffffffffffffffff811115610bbd57600080fd5b610bc98b828c01610a28565b9150509295985092959890939650565b600060208284031215610beb57600080fd5b6000610bf984828501610a52565b91505092915050565b610c0b81610f20565b82525050565b6000610c1c82610f04565b610c268185610f0f565b9350610c36818560208601610f6b565b610c3f816110d7565b840191505092915050565b60008154610c5781610f9e565b610c618186610f0f565b94506001821660008114610c7c5760018114610c8e57610cc1565b60ff1983168652602086019350610cc1565b610c9785610eef565b60005b83811015610cb957815481890152600182019150602081019050610c9a565b808801955050505b50505092915050565b610cd381610f52565b82525050565b6000602082019050610cee6000830184610c02565b92915050565b6000602082019050610d096000830184610cca565b92915050565b600061012082019050610d25600083018c610cca565b8181036020830152610d37818b610c11565b90508181036040830152610d4b818a610c11565b90508181036060830152610d5f8189610c11565b90508181036080830152610d738188610c11565b905081810360a0830152610d878187610c11565b905081810360c0830152610d9b8186610c11565b905081810360e0830152610daf8185610c11565b9050818103610100830152610dc48184610c11565b90509a9950505050505050505050565b600061012082019050610dea600083018c610cca565b8181036020830152610dfc818b610c4a565b90508181036040830152610e10818a610c4a565b90508181036060830152610e248189610c4a565b90508181036080830152610e388188610c4a565b905081810360a0830152610e4c8187610c4a565b905081810360c0830152610e608186610c4a565b905081810360e0830152610e748185610c4a565b9050818103610100830152610e898184610c4a565b90509a9950505050505050505050565b6000610ea3610eb4565b9050610eaf8282610fd0565b919050565b6000604051905090565b600067ffffffffffffffff821115610ed957610ed86110a8565b5b610ee2826110d7565b9050602081019050919050565b60008190508160005260206000209050919050565b600081519050919050565b600082825260208201905092915050565b6000610f2b82610f32565b9050919050565b600073ffffffffffffffffffffffffffffffffffffffff82169050919050565b6000819050919050565b82818337600083830152505050565b60005b83811015610f89578082015181840152602081019050610f6e565b83811115610f98576000848401525b50505050565b60006002820490506001821680610fb657607f821691505b60208210811415610fca57610fc9611079565b5b50919050565b610fd9826110d7565b810181811067ffffffffffffffff82111715610ff857610ff76110a8565b5b80604052505050565b600061100c82610f52565b91507fffffffffffffffffffffffffffffffffffffffffffffffffffffffffffffffff82141561103f5761103e61104a565b5b600182019050919050565b7f4e487b7100000000000000000000000000000000000000000000000000000000600052601160045260246000fd5b7f4e487b7100000000000000000000000000000000000000000000000000000000600052602260045260246000fd5b7f4e487b7100000000000000000000000000000000000000000000000000000000600052604160045260246000fd5b6000601f19601f8301169050919050565b6110f181610f52565b81146110fc57600080fd5b5056fea2646970667358221220b4d92da9bcf9a292f7f56accdb0d625e42e69a440c2225c98ae604856c37dc5e64736f6c63430008040033",
  "devdoc": {
    "kind": "dev",
    "methods": {},
    "version": 1
  },
  "userdoc": {
    "kind": "user",
    "methods": {},
    "version": 1
  },
  "storageLayout": {
    "storage": [
      {
        "astId": 5,
        "contract": "contracts/CaseRegistry.sol:CaseRegistry",
        "label": "owner",
        "offset": 0,
        "slot": "0",
        "type": "t_address"
      },
      {
        "astId": 8,
        "contract": "contracts/CaseRegistry.sol:CaseRegistry",
        "label": "currentId",
        "offset": 0,
        "slot": "1",
        "type": "t_uint256"
      },
      {
        "astId": 32,
        "contract": "contracts/CaseRegistry.sol:CaseRegistry",
        "label": "casesById",
        "offset": 0,
        "slot": "2",
        "type": "t_mapping(t_uint256,t_struct(Case)27_storage)"
      }
    ],
    "types": {
      "t_address": {
        "encoding": "inplace",
        "label": "address",
        "numberOfBytes": "20"
      },
      "t_mapping(t_uint256,t_struct(Case)27_storage)": {
        "encoding": "mapping",
        "key": "t_uint256",
        "label": "mapping(uint256 => struct CaseRegistry.Case)",
        "numberOfBytes": "32",
        "value": "t_struct(Case)27_storage"
      },
      "t_string_storage": {
        "encoding": "bytes",
        "label": "string",
        "numberOfBytes": "32"
      },
      "t_struct(Case)27_storage": {
        "encoding": "inplace",
        "label": "struct CaseRegistry.Case",
        "members": [
          {
            "astId": 10,
            "contract": "contracts/CaseRegistry.sol:CaseRegistry",
            "label": "id",
            "offset": 0,
            "slot": "0",
            "type": "t_uint256"
          },
          {
            "astId": 12,
            "contract": "contracts/CaseRegistry.sol:CaseRegistry",
            "label": "companyName",
            "offset": 0,
            "slot": "1",
            "type": "t_string_storage"
          },
          {
            "astId": 14,
            "contract": "contracts/CaseRegistry.sol:CaseRegistry",
            "label": "caseType",
            "offset": 0,
            "slot": "2",
            "type": "t_string_storage"
          },
          {
            "astId": 16,
            "contract": "contracts/CaseRegistry.sol:CaseRegistry",
            "label": "description",
            "offset": 0,
            "slot": "3",
            "type": "t_string_storage"
          },
          {
            "astId": 18,
            "contract": "contracts/CaseRegistry.sol:CaseRegistry",
            "label": "region",
            "offset": 0,
            "slot": "4",
            "type": "t_string_storage"
          },
          {
            "astId": 20,
            "contract": "contracts/CaseRegistry.sol:CaseRegistry",
            "label": "profession",
            "offset": 0,
            "slot": "5",
            "type": "t_string_storage"
          },
          {
            "astId": 22,
            "contract": "contracts/CaseRegistry.sol:CaseRegistry",
            "label": "gender",
            "offset": 0,
            "slot": "6",
            "type": "t_string_storage"
          },
          {
            "astId": 24,
            "contract": "contracts/CaseRegistry.sol:CaseRegistry",
            "label": "ageRange",
            "offset": 0,
            "slot": "7",
            "type": "t_string_storage"
          },
          {
            "astId": 26,
            "contract": "contracts/CaseRegistry.sol:CaseRegistry",
            "label": "experience",
            "offset": 0,
            "slot": "8",
            "type": "t_string_storage"
          }
        ],
        "numberOfBytes": "288"
      },
      "t_uint256": {
        "encoding": "inplace",
        "label": "uint256",
        "numberOfBytes": "32"
      }
    }
  }
}